:020000040800F2
:10000000B0060020F101000803410008FB3600089B
:100010000141000815090008A15200080000000075
:100020000000000000000000000000007144000813
:100030001709000800000000094100087344000887
:100040000B0200080B0200080B0200080B0200085C
:100050000B0200080B0200080B0200080B0200084C
:100060000B0200080B0200080B0200080B0200083C
:100070000B0200080B0200080B0200080B0200082C
:100080000B020008000000006D0800080B020008C9
:100090000B0200080B0200080B0200080B0200080C
:1000A0000B0200080B0200080B0200080B020008FC
:1000B000154500080B020008214500080B02000846
:1000C0000B0200080B0200080B0200080B020008DC
:1000D0000B02000889520008955200080B02000824
:1000E0000B0200080B0200080B0200080B020008BC
:1000F0000B0200080B0200080B02000800000000C1
:10010000000000000B020008000000000B020008C5
:100110000B020008000000000B0200080B020008A0
:100120000B0200080B0200080B0200080B0200087B
:100130000B02000800000000000000000B02000895
:100140000B0200080B020008000000000000000085
:10015000000000000000000000000000000000009F
:100160000000000000000000000000000B0200087A
:100170000B0200080000000000000000000000006A
:10018000000000000B02000800000000000000005A
:10019000000000000000000000000000000000005F
:1001A00000000000000000000B0200080B02000825
:1001B0000B0200080B0200080B0200080000000000
:1001C000000000000B02000800000000000000001A
:1001D0000B0200080B020008DFF810D000F022FB31
:1001E00000480047A95B0008AFF30080B00600207C
:1001F0000648804706480047FEE7FEE7FEE7FEE7C1
:10020000FEE7FEE7FEE7FEE7FEE7FEE7054500083E
:10021000D90100082DE9F05F0546002092469B4673
:1002200088460646814640241BE02846414647460C
:10023000224600F00CF953465A46C01A914110D399
:1002400011461846224600F0F3F82D1A67EB010814
:100250004F4622460120002100F0EAF817EB000982
:100260004E41201EA4F10104DFDC484631462A46F7
:100270004346BDE8F09FD2B201E000F8012B491ED1
:10028000FBD270470022F6E710B513460A46044633
:100290001946FFF7F0FF204610BD421C10F8011B65
:1002A0000029FBD1801A70472DE9FE4F81EA030433
:1002B00004F0004421F0004100944FF0000B23F0C3
:1002C000004350EA01045ED052EA03045BD0C3F35A
:1002D0000A54C1F30A552C44A4F2F3340194A0FB50
:1002E0000254C1F3130141F48011C3F3130343F427
:1002F000801301FB024400FB034E840A970A44EA80
:10030000815447EA8357A4FB076802958D0A05FBD1
:1003100007854FEA932C04FB0C542705029D4FEAF6
:10032000065847EA1637B5EB08056EEB070C870E43
:10033000920E47EA811742EA8312A7FB0201B6EB4D
:100340000B0164EB00042B0D43EA0C335E1844EB05
:100350001C50DA465146E7FB0201C5F313044FEA8D
:100360000B3343EA14534FEA0432019C43EA060379
:10037000A4F10C040294009CCDE900B400F0BDF897
:1003800003B0BDE8F08F00200146F9E70EB540F25A
:10039000334102910021CDE900110A460B4600F0DD
:1003A000ACF803B000BD00F0004230F000400AD0CD
:1003B000C10D01F56071C0F3160042EA0151C20897
:1003C00040071143704700200146704701F0004389
:1003D00030B421F0004150EA010206D00A0DA2F526
:1003E0006072C1F31301002A02DC30BC00207047A8
:1003F000440F44EAC104C100E01830BC00EBC25015
:1004000000F035B830B50B4601460020202201240B
:1004100009E021FA02F59D4205D303FA02F5491BD2
:1004200004FA02F52844151EA2F10102F1DC30BDE8
:10043000202A04DB203A00FA02F1002070479140A4
:10044000C2F1200320FA03F3194390407047202A99
:1004500004DB203A21FA02F00021704721FA02F36E
:10046000D040C2F12002914008431946704700294C
:10047000A8BF7047401C490008BF20F0010070472A
:1004800010B4B0FA80FC00FA0CF050EA010404BF8A
:1004900010BC704749B1CCF1200421FA04F411FAE0
:1004A0000CF118BF012121430843A3EB0C01CB1D24
:1004B0004FEA00614FEA102042BF002010BC704795
:1004C00000EBC35010440029A4BF10BC7047401C6F
:1004D000490008BF20F0010010BC704710B5141E81
:1004E00073F1000408DA401C41F1000192185B41ED
:1004F0001A4301D120F0010010BD2DE9F04D9246C4
:100500009B4611B1B1FA81F202E0B0FA80F22032DA
:100510009046FFF78DFF04460F4640EA0A0041EA85
:100520000B0153465A46084313D0114653EA0100C3
:1005300019D0C8F140025046FFF789FF05460E4624
:10054000504659464246FFF773FF084305D0012045
:1005500004E020463946BDE8F08D0020054346EA18
:10056000E0762C4337430A986305E40AA0EB0800C1
:100570000022FD0A44EA47540A3002D50020014611
:10058000E9E7010510196941DDE9084500196941EC
:10059000BDE8F04DA2E72DE9FE4F804681EA030059
:1005A000C00F0C46009021F0004123F00045B8EB4D
:1005B0000200A94105D24046214690461C460B4602
:1005C000024623F00040104347D0270DC7F30A002E
:1005D000C3F30A510290401A019040286BDAC3F32A
:1005E000130040F4801B0098924620B10023D2EB08
:1005F000030A63EB0B0B01985946C0F140025046C9
:10060000FFF716FF06460D4650465946019A00F080
:100610001BF910EB08006141002487EA115284EABB
:10062000E7731A4340D0009A62B3019A012A4FEA55
:10063000075215DC001B61EB02014FF0004202EA99
:100640000752CDE90042001C41F5801132462B468D
:10065000FFF753FF03B0BDE8F08F40462146F9E7AE
:10066000001B61EB0201001C41F5801300185B4187
:100670002018A2F5001747EB030140EAD570B61920
:100680006D4111E06D084FEA360645EAC0754FEA44
:100690000752001B61EB0201001C41F58011490863
:1006A0004FEA30000019514132462B4603B0BDE8F5
:1006B000F04FFFF713BF0098012240000023D0EB5A
:1006C000020263EBE073009821464FEAE074B8EB56
:1006D000000061EB0401E9E783F000435BE781F090
:1006E000004158E72DE9F04D81EA030404F0004B86
:1006F00021F0004514464FF0000A23F0004150EA73
:10070000050220D054EA01021DD0C5F30A57024663
:10071000C5F31303C1F31300C1F30A5640F4801567
:1007200043F48013A7EB0608101BD64608F2FD38E9
:1007300073EB050002D308F1010801E092185B4158
:10074000B8F1000F03DA00200146BDE8F08D00206B
:100750004FF48011064684460EE0171B73EB050725
:1007600005D3121B63EB050306434CEA010C490851
:100770004FEA300092185B4150EA0107EDD152EA8E
:10078000030012D082EA040083EA0501084305D081
:10079000101BAB4106D20122002306E000224FF0DD
:1007A000004302E06FF0010253101AEB06004CEB1D
:1007B000085110EB0A0041EB0B01BDE8F04DFFF7CB
:1007C0008DBEC1F30A52C1F3130140F2FF3341F46D
:1007D00080119A4202DA00200146704740F233430A
:1007E0009A42A2F2334202DC5242FFF730BEFFF7D8
:1007F0001FBE000030B5041E71F1000404DB4FF091
:100800000044404264EB0101141E73F1000405DB57
:100810001C464FF00043524263EB0403994208BF69
:10082000904230BD064C074D06E0E06840F0010301
:1008300094E8070098471034AC42F6D3FFF7D0FC99
:10084000206F0008406F0008202A06DBCB17203AF3
:1008500041FA02F043EAE07306E041FA02F3D040C5
:10086000C2F120029140084319467047014800F048
:100870006DBB00008800002070B5044620688168C8
:1008800001F00101002939D181686FF39E1149B14E
:10089000E06D40F01000E065206E40F00100206641
:1008A000012070BD816821F03F0121F0004141F03D
:1008B0000101816001F044F805462068006810F0ED
:1008C000010F1BD12068816801F0010139B98168ED
:1008D00021F03F0121F0004141F00101816001F070
:1008E0002FF8401B022804D92068006810F0010F7F
:1008F00006D02068006810F0010FE3D0002070BD22
:10090000E06D40F01000E065206E40F001002066D0
:10091000012070BDFEE77047002240F6B83306E0C4
:100920000021491C89B29942FBD3521C92B28242E7
:10093000F6D3704772B6FEE770477047704770474E
:1009400070470000F0B49BB04FF0000C90F85820B6
:10095000012A16D0012280F85820002317931893FB
:100960000268314DB2F1A04F0FD00093009C74B1DA
:10097000009CA468C4F380049268C2F3800282B130
:1009800010E01BB00220F0BC70470095EEE7C16D8F
:1009900041F02001C16580F858301BB00120F0BC47
:1009A00070475CB1C16D41F02001C1654FF0010C91
:1009B00080F858301BB06046F0BC70471B4A0E6888
:1009C0004FF0A044E6B1966890F8387026F460467F
:1009D00046EA47364F683E439660A46804F0010437
:1009E000AD6805F001052C43E2D10C68896821430C
:1009F000946824F01F0424F4706421439160D7E7C5
:100A0000916821F460419160A16801F00101AC6836
:100A100004F001042143CBD1916821F01F0121F49E
:100A200070619160C4E700000001005000030050B5
:100A30002DE9F80700239C46CDF800C0FE4E90F843
:100A40005820012A12D0012480F858400568AA686D
:100A5000C2F3800272B1C16D41F02001C165012372
:100A600080F858C01846BDE8F8077047BDE8F80799
:100A7000022070478A880F6802F4407805EB9815C9
:100A8000D5F8308002F01F024FF01F0909FA02F971
:100A9000C7F3846728EA090807FA02F248EA020263
:100AA0002A6302689568C5F380059768C7F3C00795
:100AB0002F434FF0070540F0FF80D1F80880B8F1D0
:100AC000004F53D00F6807F0007902EBD952D2F8EB
:100AD0001490C7F3045705FA07FA29EA0A0908FA35
:100AE00007F749EA070757610268576927F0004787
:100AF000576102684F69D2F80C80C8F3C1084FEA09
:100B0000480807FA08F80F69042F4CD0D1F8009074
:100B100002EB8702176EDFF824A309F0F84907EA11
:100B20000A0749EA080847EA080747F00047176636
:100B30000268D1F810808F6902EB8802D2F86080D9
:100B400028F0807848EA070717660F7F0268D1F817
:100B50001080012F24D0002702EB8802D2F8608099
:100B600028F0007848EA07071766A5E00F684FF0FD
:100B7000000807F0007902EBD952D2F81490C7F3BD
:100B8000045705FA07FA29EA0A0908FA07F749EAB1
:100B9000070757610268576947F000475761A8E7A0
:100BA0004FF00077D8E702F160073F6800277F0326
:100BB0007F0B7CD002F160073F6807F0F84797FA97
:100BC000A7F7B7FA87F80F68C7F31209B9F1000F52
:100BD0006ED097FAA7F7B7FA87F7B84503D1176E23
:100BE00027F0004717660268121D02F160073F6890
:100BF00000277F037F0B71D002F160073F6807F089
:100C0000F84797FAA7F7B7FA87F80F68C7F31209FA
:100C1000B9F1000F6AD097FAA7F7B7FA87F7B84586
:100C200003D1176E27F0004717660268083202F1F9
:100C300060073F6800277F037F0B5AD002F16007EF
:100C40003F6807F0F84797FAA7F7B7FA87F80F68F1
:100C5000C7F31209B9F1000F53D097FAA7F7B7FA03
:100C600087F7B84503D1176E27F00047176602686B
:100C70000C3202F160073F6800277F037F0B43D0EF
:100C800002F160073F6807F0F84797FAA7F7B7FA4D
:100C900087F80F68C7F31209B9F1000F3CD097FA33
:100CA000A7F7B7FA87F7B84506D1176E01E009E054
:100CB00010E027F0004717660268976807F0010701
:100CC0006FB3D1E002F160073F6807F0F8474FEAE1
:100CD000976878E7C7F384677FE7FFE702F160076B
:100CE0003F6807F0F8474FEA97688EE7C7F38467D5
:100CF00095E702F160073F6807F0F8474FEA976809
:100D0000A5E7C7F38467ACE702F160073F6807F027
:100D1000F8474FEA9768BCE7C7F38467C3E791F8E1
:100D20000C800F68D2F8B090C7F3120A29EA0A09BA
:100D3000DFF80CA108F018082AFA08F808EA0707F3
:100D400049EA0707C2F8B070CA68B2427AD10A68A5
:100D5000076812EA0A061AD092FAA2F6B6FA86F6DE
:100D6000761C06F01F06092E32D8C2F31206002E9A
:100D700010D092FAA2F6B6FA86F606F1010606F04F
:100D80001F0604FA06F608D1C2F3846409E0C2F330
:100D90008466E5E7C2F38466EFE792FAA2F4B4FA58
:100DA00084F404F1010404F01F0446EA846402D1CF
:100DB000C2F3846203E092FAA2F2B2FA82F202F182
:100DC000010202F01F0202EB420244EA025432E046
:100DD000C2F31206002E0DD092FAA2F6B6FA86F6EB
:100DE00006F1010606F01F0604FA06F605D1C2F365
:100DF000846406E0C2F38466F2E792FAA2F4B4FADD
:100E000084F404F1010404F01F0446EA846402D16E
:100E1000C2F3846203E092FAA2F2B2FA82F202F121
:100E2000010202F01F02A2F10A0202EB420244EAAE
:100E3000025242F0007406E000007F4000F0FF0321
:100E4000FFFF070010E08E6804F0007207EBD2523B
:100E50005769C4F3045405FA04F527EA050506FAB0
:100E600004F445EA040454610A682F490A423FF435
:100E7000F7AD2E4CA16801F0E07102F1705515F547
:100E80005F0502D02A4DAA4202D111F4000F1ED0F4
:100E9000284D02F1605616F52E0602D111F0807F22
:100EA00036D002F1505616F5F8067FF4D9AD11F49C
:100EB000800F7FF4D5AD0268AA423FF4D1AD41F472
:100EC0008001A26822F0E0721143A160C8E50268C7
:100ED000B2F1A04F7FF4C4AD41F40001A26822F04A
:100EE000E0721143A1601449144A0968B1FBF2F1A0
:100EF000491C01EB410189000091009900293FF450
:100F0000AFAD0099491E009100990029F9D1A7E5DC
:100F10000268AA423FF4A4AD41F08071A26822F0B9
:100F2000E0721143A1609BE50000088000030050BF
:100F30001000C0900001005038000020400D030058
:100F4000704770470068006C704700002DE9F0475B
:100F500004464FF00008206805684668DFF8B8A22C
:100F6000DAF8080000F01F0715F0020F10D016F095
:100F7000020F0DD0E06D10F0100F03D1E06D40F4C2
:100F80000060E0652046FFF7D7FC2168022008607A
:100F9000DFF8889215F0040F02D016F0040F05D187
:100FA00015F0080F42D016F0080F3FD0E06D10F09A
:100FB000100F03D1E06D40F40070E0652068C16857
:100FC00011F4406F06D0002151B3484504D14FF0D1
:100FD000A04102E00121F7E70146814209D047B173
:100FE000052F06D0092F04D0484504D14FF0A04169
:100FF00002E0C16801E00146C96811F4005F0FD149
:10100000016811F0080F0BD08168C1F38001A1B114
:10101000E06D40F01000E065206E40F001002066B9
:101020002046FFF78DFF21680C20086015F0200F87
:1010300014D016F0200F17D110E0416821F00C01F8
:101040004160E06D20F48070E065E06D10F4805F39
:10105000E6D1E06D40F00100E065E1E715F0400FFA
:1010600050D016F0400F4DD0E06D10F0100F03D1AE
:10107000E06D40F40050E0652068C16C11F4C07F61
:101080000AD00022C16811F4406F07D00023484500
:1010900006D14FF0A04104E00122F3E70123F6E777
:1010A0000146814209D047B1062F06D0072F04D050
:1010B000484504D14FF0A04102E0C16801E001467B
:1010C000C968CAB111F0007F03D0ABB111F4005F61
:1010D00012D1026812F0400F0ED011F4001F0BD194
:1010E0008168C1F3C001E1B3E06D40F01000E0653C
:1010F000206E40F0010020662046FFF71EFC2168AC
:101100006020086015F0800F0CD016F0800F09D019
:10111000E06D40F48030E065204600F089F92168F8
:101120008020086015F4807F0DD016F4807F0AD0EF
:10113000E06D40F40030E0652046FFF700FC2168D8
:101140004FF48070086015F4007F0FD016F4007F14
:101150000CD0E06D40F48020E0652046FFF7F0FB06
:1011600000E014E021684FF40070086015F0100FE3
:1011700039D016F0100F36D0E06BC8B1DFB1DAF815
:10118000080000F46040E8B14FF001081AE041683F
:1011900021F060014160E06D20F48050E065E06D79
:1011A00010F4807FA8D1E06D40F00100E065A3E776
:1011B0004FF0010806E02068C06810F0010F01D070
:1011C0004FF00108B8F1010F0AD1E06D40F48060E2
:1011D000E065206E40F0020020662046FFF7B1FE79
:1011E00021681020086015F4806F13D016F4806F0A
:1011F00010D0E06D40F48040E065206E40F00800C3
:10120000206621684FF4806008602046BDE8F04702
:10121000FFF794BBBDE8F0870003005000010050C9
:10122000F8B50446002500260096002C02D0E06D9B
:1012300010B107E00120F8BD204600F0FBF826665B
:1012400084F8586020688168C1F3407129B18168D1
:1012500021F03F0121F02041816020688168C1F3C5
:101260000071B9B9816821F03F0121F0004141F0DE
:101270008051816069486A490068B0FBF1F0401C08
:1012800040000090009828B10098401E00900098FF
:101290000028F9D120688168C1F3007141B9E16D7E
:1012A00041F01001E165216E41F001012166012547
:1012B0008168C1F38001E26D12F0100F00D131B1ED
:1012C000E06D40F01000E06501252846F8BDE16DB5
:1012D00021F4807141F00201E165806800F00100B5
:1012E00088B94FF0A040806800F001004D4989683E
:1012F00001F00101084306D160684B498A6822F475
:101300007C1210438860E168E06B627F0843A1684B
:1013100041EA4231084394F8241040EA014001298F
:1013200003D1218D491E40EA4140E16A21B101F417
:101330007871226B084310432168CA683B4B1A40FE
:101340001043C86020680169626B21F0406111435D
:10135000016120688168C1F380018268C2F3C00224
:10136000114332D1217F94F83820890341EA4201A8
:10137000C26822F0020222F480421143C160206957
:1013800070B12068016941F4803101612068D0F8B2
:10139000C01022696FF30D011143C0F8C0100BE0BB
:1013A0002068016921F4803101612068D0F8C01003
:1013B0006FF30D01C0F8C01094F84000012813D05D
:1013C0002068016921F001010161606901281CD0D8
:1013D0002068016B21F00F010163E06D20F0020035
:1013E00040F00100E06570E7A16C606C226D08437D
:1013F000E16C114340EA0102206801696FF38A0140
:10140000114341F001010161DFE72068016B226AAD
:1014100021F00F01521E11430163DEE73800002066
:10142000400D030000010050000300500740F0FF92
:101430007047000010B586B0044614216846FEF7D8
:1014400021FF2068B0F1A04F23D11348C16C41F4B3
:101450000051C164C16C01F400510591C16C41F0AF
:101460000201C164C06C694600F0020005904FF4AF
:10147000804000900320019000200290074800F077
:1014800031F900221146122000F0C8FA122000F0B3
:10149000B7FA06B010BD000000100240000400487A
:1014A00070B504463D48806800F01F0520688068DC
:1014B000C0F38000002802D00222104670BD94F8CC
:1014C000580001280DD0012084F858002046FFF76D
:1014D000D3F9024610004FF0000C04D084F858C035
:1014E000EBE7022070BDE06D20F0010020F46060A9
:1014F00040F48070E0652A4B2068984202D14FF09A
:10150000A04100E00146814200D01DB9E16D21F407
:101510008011E165E16D11F4805F04D0216E21F04E
:101520000601216601E0C4F860C01C21016084F856
:1015300058C02068984202D14FF0A04100E0014617
:10154000814217D0B5B1052D14D0092D12D0E16D0F
:1015500041F48011E165984201D14FF0A040C0688C
:1015600010F0007FA9D0E06D20F4005040F48050CE
:10157000E065A2E7C16811F0007F05D0E16D21F4BC
:10158000005141F48051E165816821F03F0121F073
:10159000004141F0040181608FE70000000300502A
:1015A00000010050002290F825100123022903D0E9
:1015B0000421C163012230E00168D1F800C02CF0A1
:1015C0000E0CC1F800C0816CD1F800C02CF4807CF6
:1015D000C1F800C00168D1F800C02CF0010CC1F8BE
:1015E00000C090F84410D0F840C001F01F0103FA89
:1015F00001F1CCF80410D0F84CC0016DCCF8041007
:10160000416D51B1D1F800C02CF4807CC1F800C00C
:10161000D0F858C0C16DCCF8041080F825300021F6
:1016200080F824101046704710B5002490F825105B
:1016300000230122022907D00421C16380F825205C
:1016400080F82430012437E00168D1F800C02CF084
:101650000E0CC1F800C00168D1F800C02CF0010CDC
:10166000C1F800C0816CD1F800C02CF4807CC1F8B6
:1016700000C090F84410D0F840C001F01F0102FAF9
:1016800001F1CCF80410D0F84CC0016DCCF8041076
:10169000416D51B1D1F800C02CF4807CC1F800C07C
:1016A000D0F858C0C16DCCF8041080F8252080F81F
:1016B0002430816B01B18847204610BD70B50446C7
:1016C00000F03EF90546B4F1FF3F02D004484068FF
:1016D000044400F035F9401BA042FAD370BD00006D
:1016E0003C0000202DE9F84F00220B68002B7CD035
:1016F0000324874E874F0F250123D1F800C003FA3A
:1017000002F80CEA0803002B70D0D1F804C0BCF139
:10171000010F08D0BCF1020F05D0BCF1110F02D0AF
:10172000BCF1120F1DD1D0F808904FEA420C04FA18
:101730000CFA29EA0A09D1F80CA00AFA0CFC4CEAC6
:10174000090CC0F808C0D0F804C02CEA080C91F8C5
:101750000480C8F3001808FA02F848EA0C0CC0F834
:1017600004C0D0F80C804FEA420C04FA0CFA28EAC4
:101770000A08D1F8089009FA0CF949EA0808C0F8F3
:101780000C80D1F80480B8F1020F02D0B8F1120F2A
:1017900015D14FEAD20800EB8808D8F820B04FEAFC
:1017A00042794FEAD96905FA09FE2BEA0E0BD1F806
:1017B00010E00EFA09F949EA0B09C8F82090D0F8B0
:1017C000008028EA0A0891F8049009F0030909FA50
:1017D0000CFC4CEA080CC0F800C0D1F804C01CF0A6
:1017E000805F7CD0D6F860C001E07DE077E04CF00F
:1017F000010CC6F860C0D6F860C00CF0010CCDF842
:1018000000C022F0030C0CF1804909F58039D9F8A9
:1018100008C04FEA82784FEA187805FA08FA2CEAED
:101820000A0AB0F1904F64D0A0F1904CBCF5806CE6
:101830005CD0A0F1904CBCF5006C5DD0A0F1904C58
:10184000BCF5406C5BD0A0F1904CBCF5805C59D0ED
:10185000A0F1904CBCF5A05C57D04FF0060C0CFAF0
:1018600008FC4CEA0A0CC9F808C0D7F800C02CEAFA
:10187000030CD1F8048018F4803F01D04CEA030C2B
:10188000C7F800C0DFF89080D8F800C02CEA030C3D
:10189000D1F8049019F4003F01D04CEA030CC8F8C9
:1018A00000C0DFF87880D8F800C02CEA030CD1F82B
:1018B000049019F4801F01D04CEA030CC8F800C052
:1018C000DFF85C80D8F800C02CEA030CD1F8049053
:1018D00019F4001F01D04CEA030CC8F800C0521CD8
:1018E0000B68D3407FF408AFBDE8F88F4FF0010CD0
:1018F000B5E74FF0000CB2E74FF0020CAFE74FF046
:10190000030CACE74FF0040CA9E74FF0050CA6E779
:10191000001002400004014004040140080401409A
:101920000C0401400069084201D0012070470020EA
:101930007047002A01D081617047816270470000C2
:1019400001488068704700003C0000200248816820
:1019500042681144816070473C00002010B50024AB
:10196000032000F08FF8002000F008F808B10124EF
:1019700001E000F029F8204610BD000070B50546D2
:1019800000240F4E7068002817D04FF47A71B1FB15
:10199000F0F00C490968B1FBF0F000F079FE08B1F5
:1019A00001240BE0102D06D200222946501E00F023
:1019B00035F8356002E0012400E00124204670BDC6
:1019C0003C000020380000200C4808B5016E41F0B2
:1019D00001010166016E01F001010091816D41F08C
:1019E00080518165806D00F080500090052000F0EE
:1019F00049F8BDE8084000F0C5B8000000100240FA
:101A000000280ADB00F01F01012202FA01F140095F
:101A1000800000F1E020C0F80011704710B4184BAE
:101A20001B68C3F30223C3F1070CBCF1040F01D9F7
:101A30004FF0040C1C1D072C01D2002300E0DB1E1C
:101A4000012404FA0CFCACF1010C0CEA01019940F0
:101A500004FA03F35B1E1A401143002806DB00F171
:101A6000E020090180F8001410BC704700F00F005E
:101A700000F1E020090180F8141D10BC704700003F
:101A80000CED00E000F00700064A11684FF6FF0376
:101A9000194041EA002040F0FD7040F08060106085
:101AA000704700000CED00E033493222334B0968E7
:101AB0004A43334900280AD0B0F5007F31D0086886
:101AC00020F4C06040F4806008600020704708681F
:101AD00000F4C060B0F5806F06D0D1F8800020F42B
:101AE0008070C1F88000F0E7D1F8800020F48070A9
:101AF000C1F88000086820F4C06040F400700860FD
:101B0000B2FBF3F0401C00E0401E4A6912F4806F03
:101B100001D00028F8D1486910F4806FD5D0032097
:101B20007047086800F4C060B0F5806F06D0D1F847
:101B3000800040F48070C1F88000C6E7D1F88000D2
:101B400040F48070C1F88000086820F4C06040F460
:101B500000700860B2FBF3F0401C00E0401E4A69D0
:101B600012F4806F01D00028F8D1486910F4806F1A
:101B7000ABD00320704700003800002040420F0027
:101B8000007000400248816841F4804181607047E4
:101B9000007000402DE9F84F04460025002720681A
:101BA000B04E10F4002F76D0A846B06D10F0805FD4
:101BB00009D1B06D40F08050B065B06D00F080503C
:101BC00000904FF00108DFF8A0A2DAF8000040F41E
:101BD0008070CAF80000FFF7B3FE8146DAF8000013
:101BE00010F4807F0CD1FFF7ABFEA0EB09000228B8
:101BF00001D9032504E0DAF8000010F4807FF2D068
:101C000025B12F46B8F1010F41D044E0D6F890003D
:101C100000F44070A0B1216C814211D0D6F8900040
:101C200020F44070D6F8901041F48031C6F890103E
:101C3000D6F8901021F48031C6F89010C6F89000C4
:101C400010F0010F16D0FFF77BFE8146D6F890000A
:101C500010F0020F0ED141F2883AFFF771FEA0EBAF
:101C60000900504501D9032504E0D6F8900010F092
:101C7000020FF2D00DB12F46C4E7D6F89000216CC8
:101C800020F440700843C6F89000BBE703E0B06D55
:101C900020F08050B065207810F0010F07D0D6F802
:101CA0008800616820F003000843C6F888002078A7
:101CB00010F0020F07D0D6F88800A16820F00C00C1
:101CC0000843C6F88800207810F0040F07D0D6F833
:101CD0008800E16820F030000843C6F888002078CA
:101CE00010F0080F07D0D6F88800216920F0C00056
:101CF0000843C6F88800207810F0200F07D0D6F8E7
:101D00008800616920F440600843C6F888002078A4
:101D100010F0400F07D0D6F88800A16920F4405099
:101D20000843C6F88800207810F0800F07D0D6F856
:101D30008800E16920F440400843C6F88800208804
:101D400010F4807F07D0D6F88800216A20F4403054
:101D50000843C6F88800208810F4007F07D0D6F822
:101D60008800616A20F440200843C6F88800208873
:101D700010F4806F0FD0D6F88800A16A20F44010CC
:101D80000843C6F88800A06AB0F5801F03D1F06848
:101D900040F48010F060208810F4006F0FD0D6F867
:101DA0008800E16A20F440000843C6F88800E06A31
:101DB000B0F5800F03D1F06840F48010F060208807
:101DC00010F4805F0FD0D6F88800216B20F04070AF
:101DD0000843C6F88800206BB0F1807F03D1F0681B
:101DE00040F48010F060208810F4005F0FD0D6F827
:101DF0008800616B20F040600843C6F88800606B83
:101E0000B0F1006F03D1F06840F48010F0602088DA
:101E100010F4804F0FD0D6F88800A16B20F04060FE
:101E20000843C6F88800A06BB0F1006F03D1F068DA
:101E300040F48010F060208810F4004F0FD0D6F8E6
:101E40008800E16B20F040500843C6F88800E06B42
:101E5000B0F1805F03D1F06840F48030F060384624
:101E6000BDE8F88F0010024000700040704700008D
:101E70002DE9F04704460D460027002C17D0DFF867
:101E8000DC91D9F8000000F00F00A84212D2D9F876
:101E9000000020F00F002843C9F80000D9F8000026
:101EA00000F00F00A84205D00120BDE8F087012016
:101EB000BDE8F08720786A4E10F0010F41F2883AB1
:101EC0005ED06068DFF89C81032806D0022822D00B
:101ED000306810F4806F49D021E0306810F0007F46
:101EE0000ED002F013F9404524D9B06810F0F00F7D
:101EF00009D0207810F0020F1CD0A06818B119E0AA
:101F00000120BDE8F087B06820F0F00040F08000CC
:101F1000B06080270EE0306810F4003F23D000F05E
:101F2000DBF8404506D9B06820F0F00040F08000B2
:101F3000B0608027B068616820F003000843B0609B
:101F4000FFF7FEFC8046B068616800F00C00B0EB63
:101F5000810F15D0FFF7F4FCA0EB0800504508D91D
:101F60000320BDE8F0870120BDE8F0870120BDE82F
:101F7000F087B068616800F00C00B0EB810FE9D128
:101F8000206810F0020F17D010F0040F03D0B068D3
:101F900040F4E060B060207810F0080F05D0B06821
:101FA00020F4605040F4E060B060B068A16820F0B8
:101FB000F0000843B06005E0802F03D1B06820F046
:101FC000F000B060D9F8000000F00F00A8421DD961
:101FD000D9F8000020F00F002843C9F80000FFF7EF
:101FE000AFFC0746D9F8000000F00F00A8420DD062
:101FF000FFF7A6FCC01B504502D90320BDE8F087BF
:10200000D9F8000000F00F00A842F1D1207810F0BC
:10201000040F05D0B068E16820F4E0600843B060C8
:10202000207810F0080F06D0B068216920F46050C5
:1020300040EAC100B06000F04FF8B1680A4AC1F34D
:102040000311515C01F01F01C840084908600848AD
:102050000068BDE8F047FFF791BC00000020024097
:102060000010024000B4C404E06E000838000020F4
:102070003C0000200248016841F4002101607047E3
:10208000001002400148006870470000380000203E
:1020900000B5FFF7F7FF05498968054AC1F302213A
:1020A000515C01F01F01C84000BD0000001002405B
:1020B000F06E000800B5FFF7E5FF05498968054A9D
:1020C000C1F3C221515C01F01F01C84000BD0000F6
:1020D00000100240F06E00081A4A9068DFF868C0ED
:1020E00000F00C0004280CD0906800F00C01174898
:1020F000082905D091680C2333EA010103D00020A0
:10210000704760467047D16801F00303D168C1F39E
:102110000311491C032B0DD0BCFBF1F0D168C1F3B6
:1021200006214843D168C1F34161491C4900B0FB15
:10213000F1F07047B0FBF1F0D168C1F306214843DC
:10214000F0E70000001002400024F40000366E01A9
:1021500010B5054CE06910F4807F03D0FFF786FED0
:10216000A015206210BD0000001002402DE9F843C8
:102170000446002C0ED02078FD4F10F0010F60D0E7
:10218000B8683D4600F00C00E96801F003010C2836
:1021900003D004E00120BDE8F88303291AD0082801
:1021A00018D06068B0F5803F1DD0B0F5A02F1FD0CB
:1021B000286820F480302860286820F48020286077
:1021C000606858B3FFF7BCFB0646286810F4003F70
:1021D00017D036E0286810F4003F32D0606880BB2A
:1021E0000120BDE8F883286840F480302860E7E7E4
:1021F000286840F480202860286840F480302860F7
:10220000DEE7FFF79DFB801B642802D90320BDE8B1
:10221000F883286810F4003FF3D012E0FFF790FB3A
:102220000646286810F4003F0BD0FFF789FB801B9F
:10223000642802D90320BDE8F883286810F4003F21
:10224000F3D1207810F0020F5ED0B8683D4600F060
:102250000C00E96801F003010C2801D102290FD01C
:1022600004280DD0E068B8B3286840F48070286076
:10227000FFF766FB0646286810F4806F18D023E04D
:10228000286810F4806F01D0E06870B16868217C24
:1022900020F0FE4040EA01606860B6480068FFF741
:1022A0006DFB88B30120BDE8F8830120BDE8F88309
:1022B000FFF746FB801B022802D90320BDE8F88304
:1022C000286810F4806FF3D06868217C20F0FE400D
:1022D00040EA0160686017E0FFE7286820F480703A
:1022E0002860FFF72DFB0646286810F4806F0BD09E
:1022F000FFF726FB801B022802D90320BDE8F883E4
:10230000286810F4806FF3D1207810F0080F3AD0CD
:102310006069E0B1D7F894003D4640F00100C7F88D
:102320009400FFF70DFB0646D5F8940010F0020F5D
:1023300029D1FFF705FB801B022802D90320BDE845
:10234000F883D5F8940010F0020FF2D01BE0D7F814
:1023500094003D4620F00100C7F89400FFF7F0FA22
:102360000646D5F8940010F0020F0CD0FFF7E8FAFB
:10237000801B022802D90320BDE8F883D5F8940019
:1023800010F0020FF2D1207810F0040F7BD04FF044
:102390000008B86D10F0805F09D1B86D40F0805032
:1023A000B865B86D00F0805000904FF00108724D94
:1023B000286810F4807F16D1286840F48070286067
:1023C000FFF7BEFA0646286810F4807F0BD1FFF7AE
:1023D000B7FA801B022802D90320BDE8F8832868D9
:1023E00010F4807FF3D0A06801281AD005281FD0F0
:1023F000D7F8900020F00100C7F89000D7F89000BF
:1024000020F00400C7F89000A06841F2883650B36D
:10241000FFF796FA0546D7F8900010F0020F14D097
:1024200037E0D7F8900040F00100C7F89000EBE7E4
:10243000D7F8900040F00400C7F89000D7F890005B
:1024400040F00100C7F89000DEE7FFF779FA401B83
:10245000B04202D90320BDE8F883D7F8900010F00D
:10246000020FF2D015E0FFF76BFA0546D7F890009F
:1024700010F0020F0DD0FFF763FA401BB04203D9F2
:102480000320BDE8F8830BE0D7F8900010F0020FAE
:10249000F1D1B8F1010F03D1B86D20F08050B865CB
:1024A000207810F0200F3AD0A069E0B1D7F898005A
:1024B0003D4640F00100C7F89800FFF741FA064694
:1024C000D5F8980010F0020F29D1FFF739FA801BD8
:1024D000022802D90320BDE8F883D5F8980010F04F
:1024E000020FF2D01BE0D7F898003D4620F0010023
:1024F000C7F89800FFF724FA0646D5F8980010F0C0
:10250000020F0CD0FFF71CFA801B022802D903200F
:10251000BDE8F883D5F8980010F0020FF2D1E06919
:1025200060B3B9683D460C2232EA01014FF0FF3832
:1025300078D0022823D0286820F080702860E868CE
:1025400020F00300E860E86820F4881020F0807034
:10255000E860FFF7F5F90446286810F0007F0DD019
:10256000FFF7EEF9001B022857D90320BDE8F883D6
:10257000001002403C0000200070004083E028680A
:1025800020F080702860FFF7DBF90646286810F01D
:10259000007F0AD0FFF7D4F9801B022801D903205D
:1025A000E4E7286810F0007FF4D1616A206A491ED0
:1025B00040EA0110A16A228E090208EB520241EAA8
:1025C0004251084394F8341008EB510140EA41604D
:1025D00094F82C1040EAC160E9682C4A1140084385
:1025E000E860286840F080702860E86840F08070FB
:1025F000E860FFF7A5F90446286810F0007F42D193
:10260000FFF79EF9001B022801D90320AEE72868D6
:1026100010F0007FF4D036E004E0286810F0007F6E
:102620009ED130E001282CD0E868226A00F0030136
:10263000914224D1626A00F0F001521EB1EB021FF8
:102640001DD1A26A00F4FE41B1EB022F17D194F81C
:102650002C1000F07842B2EBC16F10D1228E00F442
:10266000C00108EB5202B1EB425F08D194F834107C
:1026700000F0C06008EB5101B0EB416F03D00120C6
:1026800074E7012072E7002070E700000C809F01D2
:10269000401EB0F1807F01D3012070474FF0E02150
:1026A0004861044AF020107000208861072008610A
:1026B0000020704723ED00E0704770477047704777
:1026C00070477047F0B490F83C20012A3ED00124B6
:1026D00080F83C40022280F83D2003685A68D3F815
:1026E00008C01C4D1C4EAB4201D0B34203D122F4B2
:1026F00070024F683A4322F0700222F000720F68B5
:102700003A435A600268AA4213D0B2F1804F10D007
:10271000A2F18043B3F580630BD0A2F18043B3F5FF
:10272000006306D0B24204D0A2F18043B3F5A033D7
:1027300004D12CF0800389681943916080F83D40F2
:10274000002180F83C10F0BC00207047F0BC022053
:1027500070470000002C014000340140704710B564
:102760000446002C03D094F83D0010B107E001208E
:1027700010BD002084F83C00204600F023F8022021
:1027800084F83D00211D206801F0D0FE012084F86E
:10279000480084F83E0084F83F0084F8400084F844
:1027A000410084F8420084F8430084F8440084F82F
:1027B000450084F8460084F8470084F83D00002076
:1027C00010BD000010B586B0044614216846FDF720
:1027D00059FD21681F48B1F1804F15D01E4A914222
:1027E00010D1816D41F004018165806D002200F0FF
:1027F0000400059011461E20FFF710F95FF01E003F
:10280000FFF7FEF806B010BD816D41F00101816552
:10281000816D01F001010591C16C41F00101C164BC
:10282000C06C694600F00100059020200090022055
:102830000190002002900390012004904FF09040FE
:10284000FEF750FF002211461C20FFF7E7F81C207E
:10285000D6E70000001002400008004090F83D104C
:10286000012901D001207047022180F83D10006845
:10287000A0F18041B1F596311CD0B0F1804F19D054
:10288000A0F18041B1F5806114D0A0F18041B1F593
:1028900000610FD0A0F18041B1F59A310AD0A0F1CA
:1028A0008041B1F5A03105D0016841F0010101601E
:1028B000002070478168064A11400629F8D0B1F51A
:1028C000803FF5D0016841F001010160F0E70000B0
:1028D0000700010090F83D10012901D00120704748
:1028E000022180F83D100168CA6842F00102CA6006
:1028F0000068A0F18041B1F596311CD0B0F1804F55
:1029000019D0A0F18041B1F5806114D0A0F18041CF
:10291000B1F500610FD0A0F18041B1F59A310AD034
:10292000A0F18041B1F5A03105D0016841F001016D
:102930000160002070478168054A11400629F8D0DF
:10294000B1F5803FF5D0016841F001010160F0E789
:102950000700010070B5044694F83C00012816D029
:10296000012584F83C50022084F83D0020688268EC
:1029700022F0770222F4441222F47F428260086837
:10298000702827D010DC10F00F0F03D05DE04FF05F
:10299000020070BD4FEA2012072A56D2DFE802F08B
:1029A0005050505046323C002B4BC21A984247D0F0
:1029B00009DCB0F5805F48D0B0F5005F16D0B0F10B
:1029C000101F42D13CE0102A3AD0202A38D0502A99
:1029D0003BD135E0CB684A688968206801F00DFE7C
:1029E0002068816841F0770181602EE0CB684A68F9
:1029F0008968206801F001FE2068816841F4804107
:102A0000816022E0CA684968206801F06BFE5021AD
:102A1000206801F0FDFD18E0CA684968206801F0EF
:102A2000B1FE6021206801F0F3FD0EE0CA6849683C
:102A3000206801F057FE4021206801F0E9FD04E024
:102A400022680146104601F0E3FD84F83D50002065
:102A500084F83C0070BD00002000100070B50546F1
:102A6000007F0F4C012811D100210E4800F0F8FA28
:102A7000401CA06294ED0B0AF8EE400A00EE100A2A
:102A8000B8EE400A80EE801A84ED091A287F0228E9
:102A900005D10421034800F0E3FA401CE06270BD58
:102AA00008000020F400002070B505460C4695F89B
:102AB0003C0001281CD0012085F83C00D2B1042A3A
:102AC00029D0082A39D0E36862682168286801F0B3
:102AD000A9FE2868C16921F44061C1612868C16903
:102AE000A26841EA0221C161002085F83C0070BD66
:102AF000022070BDE36862682168286801F005FE65
:102B00002868816921F00C01816128688169A268C7
:102B100011438161E8E7E36862682168286801F091
:102B200043FE2868816921F44061816128688169D8
:102B3000A26841EA02218161D6E7E3686268216800
:102B4000286801F051FE2868C16921F00C01C161BB
:102B50002868C169A2681143C161C5E710B5044680
:102B6000002C03D094F83D0010B107E0012010BD07
:102B7000002084F83C00204600F022F8022084F86F
:102B80003D00211D206801F0D1FC012084F848009F
:102B900084F83E0084F83F0084F8400084F8410047
:102BA00084F8420084F8430084F8440084F8450027
:102BB00084F8460084F8470084F83D00002010BDEA
:102BC0007047000010B50446002913D0042914D022
:102BD000082915D00C2916D0102917D094F84300D5
:102BE000B9B1042918D0082919D094F84720012830
:102BF0001AD117E094F83E00F2E794F83F00EFE7AF
:102C000094F84000ECE794F84100E9E794F84200BA
:102C1000E6E794F84420EAE794F84520E7E794F8DB
:102C20004620E4E7012A01D0012010BD0220C1B1F5
:102C3000042919D008291AD00C291BD010291CD01E
:102C400084F84300E1B104291DD008291ED084F87E
:102C50004700F1B1042922D0082926D00C292FD110
:102C600029E084F83E00EDE784F83F00EAE784F8C5
:102C70004000E7E784F84100E4E784F84200E1E738
:102C800084F84400E5E784F84500E2E784F846006C
:102C9000DFE72068C26842F00202C26010E02068EC
:102CA000C26842F00402C2600AE02068C26842F0D2
:102CB0000802C26004E02068C26842F01002C260EC
:102CC0000122206801F08AFC2068A0F18041B1F562
:102CD00096311CD0B0F1804F19D0A0F18041B1F5F0
:102CE000806114D0A0F18041B1F500610FD0A0F156
:102CF0008041B1F59A310AD0A0F18041B1F5A031FF
:102D000005D0016841F001010160002010BD81681B
:102D1000054A11400629F8D0B1F5803FF5D0016889
:102D200041F001010160F0E70700010030B5044601
:102D30000D462068002D06D0042D09D0082D0CD09A
:102D40000C2D13D10EE0C16821F00201C1600DE02D
:102D5000C16821F00401C16008E0C16821F00801E8
:102D6000C16003E0C16821F01001C1600022294662
:102D7000206801F033FC2068016A41F2111211420F
:102D800007D1016A9200114203D1016821F00101CB
:102D90000160012095B1042D13D0082D14D00C2D05
:102DA00015D0102D16D084F84300B5B1042D17D0DE
:102DB000082D18D084F84700002030BD84F83E006C
:102DC000F3E784F83F00F0E784F84000EDE784F88B
:102DD0004100EAE784F84200E7E784F84400EBE7C3
:102DE00084F84500E8E784F84600E5E770B5044656
:102DF000206801694FF0000511F0020F17D0C1687B
:102E000011F0020F13D0E91E016101202077206824
:102E1000806910F0030F03D02046FFF71FFE05E086
:102E2000204600F0E8F8204600F0E6F82577206814
:102E3000016911F0040F18D0C16811F0040F14D00B
:102E40006FF004010161022020772068806910F48E
:102E5000407F03D02046FFF701FE05E0204600F04A
:102E6000CAF8204600F0C8F825772068016911F0FB
:102E7000080F18D0C16811F0080F14D06FF00801C6
:102E80000161042020772068C06910F0030F03D08F
:102E90002046FFF7E3FD05E0204600F0ACF82046B1
:102EA00000F0AAF825772068016911F0100F18D0FA
:102EB000C16811F0100F14D06FF0100101610820EB
:102EC00020772068C06910F4407F03D02046FFF7C8
:102ED000C5FD05E0204600F08EF8204600F08CF895
:102EE00025772068016911F0010F09D0C16811F040
:102EF000010F05D06FF001010161204600F07EF85E
:102F00002068016911F0800F09D0C16811F0800FAD
:102F100005D06FF0800101612046FFF7CEFB2068ED
:102F2000016911F4807F09D0C16811F0800F05D0CC
:102F30006FF4807101612046FFF7BEFB20680169D4
:102F400011F0400F09D0C16811F0400F05D06FF0AB
:102F500040010161204600F0C2F82068016911F0CB
:102F6000200F09D0C16811F0200F05D06FF02001AB
:102F700001612046FFF7A2FB2068016911F4801F60
:102F800009D0C16811F4801F05D06FF48011016170
:102F90002046FFF795FB2068016911F4001F09D056
:102FA000C16811F4001F05D06FF4001101612046C3
:102FB000FFF785FB2068016911F4800F09D0C16813
:102FC00011F4800F05D06FF4800101612046FFF7F6
:102FD00078FB2068016911F4000F0BD0C16811F46F
:102FE000000F07D06FF4000101612046BDE870407A
:102FF000FFF7B4BB70BD704770470000154910B5AE
:10300000884226D114480189491C89B20181B1F551
:103010007A7F1ED10121017000210181C18871B127
:103020000021C18000290D484FF0000109D0FFF7B1
:103030007DFEBDE8104004210848FFF777BE01215E
:10304000EFE7FFF7BFFDBDE8104004210348FFF79D
:10305000B9BD10BD4001002008000020F400002090
:1030600002460020002908D0042909D008290AD0E6
:103070000C2901D11068006C70471068406B7047D4
:103080001068806B70471068C06B704770B504465D
:1030900094F83C00012810D0012584F83C5002200F
:1030A00084F83D00204601F0BDFA002138B184F8D3
:1030B0003D5084F83C10012070BD022070BD206896
:1030C000C26822F04002C2602068C26822F48042D6
:1030D000C26084F83D5084F83C10002070BD7047F9
:1030E00090F88010012918D0012180F88010242147
:1030F000C0F8841001680A680B6823F001030B60B4
:1031000022F0005100224266036819602021C0F8B5
:10311000841080F88020002070470220704770479C
:10312000704770B5044694F8800001281DD0012036
:1031300084F880002420C4F88400206805680268B0
:1031400022F0010202602068826822F0606211436E
:103150008160204601F086FB206805602020C4F8CD
:103160008400002084F8800070BD022070BD70B51E
:10317000044694F8800001281DD0012084F88000C6
:103180002420C4F8840020680568026822F0010247
:1031900002602068826822F060421143816020460C
:1031A00001F060FB206805602020C4F88400002046
:1031B00084F8800070BD022070BD70477047704772
:1031C00070B504462368D86919689A6840F60F0CF0
:1031D00000EA0C0CBCF1000F0FD110F0200F0CD046
:1031E00001F0200502F08056354306D0216F0029FA
:1031F0007ED02046BDE8704008470025BCF1000F96
:1032000077D0DFF894C2A54E02EA0C0C0E405CEABF
:1032100006066ED010F0010F0AD011F4807F07D09F
:1032200001261E62D4F88C3043F00103C4F88C30C0
:1032300010F0020F0BD012F0010F08D02668022305
:103240003362D4F88C3043F00403C4F88C3010F0AF
:10325000040F0BD012F0010F08D02668042333624C
:10326000D4F88C3043F00203C4F88C3010F0080F0F
:103270000FD001F0200353EA0C030AD0D4F800C0A9
:103280000823CCF82030D4F88C3043F00803C4F87D
:103290008C3010F4006F0ED011F0806F0BD0D4F88A
:1032A00000C04FF40063CCF82030D4F88C3043F0E9
:1032B0002003C4F88C30D4F88C30002B36D010F0BA
:1032C000200F09D001F0200002F08051084303D004
:1032D000216F09B120468847D4F88C00216889689D
:1032E00011F0400F02D110F0280F24D0204601E049
:1032F0001CE026E001F08AFB2068816811F0400F95
:1033000015D0816821F040018160E06F58B16449B7
:103310008163E06FFEF788F9002807D0E06F816BCA
:10332000BDE8704008472046FFF749FF70BD2046C2
:10333000FFF745FF70BD2046FFF741FFC4F88C50F2
:1033400070BDD4F86CC0BCF1010F66D110F0100F45
:1033500063D011F0100F60D01020186220688168CF
:103360004FF0200311F0400F33D0E26F116849682D
:1033700089B20029E4D0B4F85CC08C45E0D9A4F847
:103380005E101168096811F0200F18D1016821F44E
:10339000807101602068816821F0010181602068EE
:1033A000816821F040018160C4F88830E5662068BA
:1033B000016821F010010160E06FFEF7F3F8B4F846
:1033C0005C00B4F85E10401A81B22046FFF7A7FEF9
:1033D00070BDB4F85C10B4F85E20891A89B2B4F8F4
:1033E0005E20002AF4D00029F2D0026822F4907204
:1033F00002602068826822F0010222F0805282601E
:10340000C4F88830E56625672068026822F010025B
:1034100002602046FFF783FE70BD10F4801F0AD0C3
:1034200012F4800F07D04FF4801018622046BDE8D8
:103430007040FFF7C3BE10F0800F0CD001F0800386
:1034400002F400021A4306D0616F0029E4D020463E
:10345000BDE87040084710F0400F07D011F0400F52
:1034600004D02046BDE8704001F0EBBA10F4000F24
:1034700007D011F0804F04D02046BDE87040FFF720
:103480009CBE10F0807FC7D011F0004FC4D0204602
:10349000BDE87040FFF744BE0100001020010004A9
:1034A000F949000810B50446002C03D0D4F8840074
:1034B00010B107E0012010BD002084F880002046F4
:1034C00000F028F82420C4F884002068016821F066
:1034D00001010160204601F08BFC012818D0A06A90
:1034E00010B1204601F0E8F92068416821F49041CC
:1034F00041602068816821F02A01816020680168AC
:1035000041F0010101602046BDE8104001F040BAE1
:10351000012010BD70B586B0044614216846FCF742
:10352000B1FE284E256800222749022407234FF0C8
:103530009040B54220D10D6E45F480450D660D6E6C
:1035400005F480450595CD6C45F00105CD64C96C49
:1035500001F0010105914FF4C0610091CDE90142F4
:103560006946CDE90323FEF7BDF80022012125209D
:10357000FEF754FA252021E0144EB54220D18D6D7E
:1035800045F400358D658D6D05F400350595CD6CE0
:1035900045F00105CD64C96C01F0010105910C21D4
:1035A0000091CDE901426946CDE90323FEF79AF87F
:1035B000002201212620FEF731FA2620FEF720FA0C
:1035C00006B070BD003801400010024000440040C9
:1035D000D0F88830202B01D002207047E1B1DAB159
:1035E00090F88030012B19D0012380F8803000231F
:1035F000C3660368A3F1804CBCF5004C0AD0D3F835
:1036000004C01CF4000F05D0D3F800C04CF0806C4F
:10361000C3F800C001F05CBD012070470220704774
:1036200070472DE9F84304460E4615461F46D4F868
:103630008400202802D00220BDE8F883D6B1CDB1A5
:1036400094F88000012818D0012084F880004FF001
:103650000009C4F88C902120C4F88400FEF770F9AA
:103660008046A4F85450A4F85650A068B0F5805F86
:1036700006D007E00120BDE8F8830220BDE8F8830A
:10368000206988B13546002684F88090B4F8560049
:10369000D0B14346002280212046009701F092FDE0
:1036A00020B10320BDE8F8830025EDE7BDB1216816
:1036B000287888626D1CB4F85600401EA4F85600A5
:1036C000B4F856000028E4D14346002240212046A9
:1036D000009701F077FD48B10320BDE8F8833088FA
:1036E0002168C0F308008862B61CE4E72020C4F813
:1036F00084000020BDE8F8837047FEE710B531482C
:103700000168314CE268891AC8295AD30068E06020
:1037100000F080F86070E17822794A4002EA000106
:103720008243A170E2702071012922D002292DD09C
:10373000032934D0042944D194ED090ADFED230A8A
:1037400020EE200A10EE100AFCF72DFE41EC100BC3
:103750001FA153EC102B224801F0A4FD2048FCF7D8
:103760009CFD82B2BDE8104032231D491D48FFF781
:1037700058BF4FF6FF7000F09BF86069FCF713FE2E
:1037800041EC100B18A153EC102BE4E71949A06A87
:10379000B1FBF0F218A1124801F084FDDEE794EDD0
:1037A0000A0A9FED181AF8EE400A80EE810A10EE20
:1037B000100AFCF7F8FD41EC100B13A153EC102B91
:1037C000C9E710BD44000020080000200000C842E6
:1037D00020447574793A252E32662025250D0A007D
:1037E0005D0000201C02002056703A25342E3266FF
:1037F000560D0A0000A24A04467265713A257548C2
:103800007A0D0A004054894C20543A25372E3666EA
:10381000730D0A0070B50E4D002401212846FEF7F5
:1038200081F800B9012402212846FEF77BF800B98F
:10383000022404212846FEF775F800B9032401216B
:103840004FF09040FEF76EF800B90424204670BD9A
:103850000004004800B585B014216846FCF712FD4D
:103860004FF6FF70009000200321CDE90201019086
:1038700069460248FDF736FF05B000BD0008004864
:1038800000B585B014216846FCF7FCFC4FF6FF70CC
:1038900000900120019003200390002002906946CF
:1038A0000248FDF71FFF05B000BD000000080048FA
:1038B00070B5002406462146204600F09DF900F030
:1038C000DBF94FF49635304600F0AAF9641CAC429F
:1038D000F9D370BD30B587B014216846FCF7D2FC2F
:1038E0001E48C16C41F00401C164C16C01F00401C7
:1038F0000591C16C41F00101C164C16C01F001018D
:103900000591C16C41F00201C164C06C012500F059
:10391000020005904FF44870CDE90005002403949F
:10392000694602940E48FDF7DDFE280203940090DC
:10393000CDE901544FF0904469462046FDF7D2FE90
:10394000FFF79EFFA06940F48070A0610448183022
:10395000016841F40871016007B030BD00100240F9
:1039600000040048203AD2B2034B02EB420203EBC0
:10397000021200F019B80000105D0008F0B50E4604
:103980000746002540F23F1407E021463846FFF77E
:10399000E9FF103C6D1CA4B2761C3278002A01D0DD
:1039A000142DF2D3F0BD00002DE9F04791468A4670
:1039B0000026044600F020F9DFF84080012700BF10
:1039C00000F05AF95FF0000539F8160007FA05F122
:1039D0000842404601D1408800E0008800F020F90C
:1039E0006D1C102DF0D3641CE4B25146204600F04B
:1039F00003F9761C182EE3D3BDE8F0870000002001
:103A000010B5FFF767FF002000F0AEF8084CA0806B
:103A1000A088A0F50241303906D000F028FC002033
:103A200000F0A2F8A08010BD00F098FBF7E70000BE
:103A30000000002010B52F4801682F4C2269891A18
:103A4000B1F57A7F54D3006820612CA12E4801F093
:103A500029FC2D491820FFF791FF6069FCF7A3FCB2
:103A600041EC100B29A153EC102B274801F01AFC54
:103A700025494820FFF782FF2749A06AB1FBF0F2F1
:103A800026A1214801F00EFC1F497820FFF776FFA0
:103A900094ED0A0A9FED261AF8EE400A80EE810A9C
:103AA00010EE100AFCF77FFC41EC100B21A153EC47
:103AB000102B154801F0F6FB1349A820FFF75EFF15
:103AC00094ED090ADFED210A20EE200A10EE100A1B
:103AD000FCF769FC41EC100B1DA153EC102B0A48BC
:103AE00001F0E0FBBDE810400749D820FFF746BFD2
:103AF00010BD00004400002008000020205061722A
:103B0000616D657465720000480000202056703AAF
:103B100025342E326656000000A24A042046726503
:103B2000713A2564487A20202020202000000000DF
:103B30004054894C20543A25372E36667320202075
:103B40002020202020202020200000000000C8424B
:103B500044757479203D20252E32662025252020AD
:103B6000202020200000000070B51D490A6842F4A2
:103B700000720A600A6842F480720A60184C103CB5
:103B8000226842F020022260164A1060086840F065
:103B90002000086000BF00BF00BF206840F0200088
:103BA0002060206840F480702060FFF753FE4FF0E3
:103BB0009041886A40F48070886200BF00BF00BFF7
:103BC0000848001F006885B2886940F480708861E9
:103BD000FFF756FE206840F400702060284670BD54
:103BE000280400481408004801B5BDF80000014948
:103BF000488008BD0000002010B50C46014620207A
:103C000000F068F82146BDE81040212000F062B8BD
:103C100001B5BDF800000149088008BD0000002082
:103C2000134A116841F400711160114910390B6891
:103C300043F480730B600B6843F020030B600D4B63
:103C40001860106840F02000106000BF00BF00BF87
:103C5000086840F020000860086840F48070086040
:103C600000BF00BF00BF086840F4007008607047E4
:103C700028040048140800481449086840F40070FB
:103C80000860086840F480700860104810380268C6
:103C900042F0200202600E4B22221A600A6842F0B3
:103CA00020020A6000BF00BF00BF016841F0200190
:103CB0000160016841F48071016000BF00BF00BF76
:103CC000016841F400710160704700002804004859
:103CD00014080048184B10B51A6842F400721A60B4
:103CE0001A6842F480721A60134A103A146844F059
:103CF00020041460114C2060186840F02000186007
:103D000000BF00BF00BF106840F0200010601068C6
:103D100040F4807010602160186840F02000186046
:103D200000BF00BF00BF106840F0200010601068A6
:103D300040F48070106010BD28040048140800484A
:103D400070B5124D044601224FF47F412846FDF71D
:103D5000F0FD0F4E012204213046FDF7EAFD00225E
:103D600004213046FDF7E5FD210200222846FDF73B
:103D7000E0FD012204213046FDF7DBFD3046BDE8C1
:103D8000704000220421FDF7D4BD00000008004867
:103D9000000C004830B58BB0002408940994202111
:103DA00068460A94FCF76EFA1D484FF0A0410425BE
:103DB00001604FF48021C0E90114C4600461C0E9CE
:103DC0000545047744770121016280F82440C462EC
:103DD000046380F83840C46380F84040FDF720FA5F
:103DE00008B1FCF7A7FD08A90D480894FCF7AAFD47
:103DF00008B1FCF79FFD0B480090062001900720BA
:103E000002907F200594CDE9030569460448FCF73C
:103E10000FFE002801D0FCF78DFD0BB030BD000077
:103E2000880000202000F014F0B587B01421684607
:103E3000FCF728FA2D48C16C41F00401C164C16C43
:103E400001F004010591C16C41F02001C164C16C15
:103E500001F020010591C16C41F00101C164C16C08
:103E600001F001010591C16C41F00201C164C16C16
:103E700001F002010591C16C41F00801C164C06C00
:103E80001B4E00F008004FF47F44059001222146AC
:103E90003046FDF74EFD174F012204213846FDF74D
:103EA00048FD0125CDE900450024029469463046CD
:103EB0000394FDF717FCCDE9005469464FF090409C
:103EC0000294FDF70FFC0720CDE9000469460A487B
:103ED0000294FDF707FC04200090CDE901546946E7
:103EE00038460394FDF7FEFB07B0F0BD001002401A
:103EF00000080048000C00480004004810B590B0CD
:103F0000002409940A940B94142104A80C94FCF73F
:103F1000B9F92C480D940F940E94009401940294D6
:103F20004FF080410394C0E90014611EC0E90241D2
:103F3000802104618161FEF712FC08B1FCF7FAFCF4
:103F40004FF48050099009A91E48FEF703FD08B1FF
:103F5000FCF7F0FC1B48FEF701FE08B1FCF7EAFC99
:103F6000042004905020CDE9050404A915480894C4
:103F7000FFF78CF808B1FCF7DDFC0D940DA9114892
:103F80000F94FEF79FFB08B1FCF7D4FC0120CDE9AC
:103F900000400294002269460A480394FEF784FD1B
:103FA00008B1FCF7C7FC022000900190042269468A
:103FB0000448FEF779FD002801D0FCF7BBFC10B0E7
:103FC00010BD0000F400002010B588B00024174890
:103FD0000094019402940394049405941249069465
:103FE00001604721C0E9011440F2E731C0E9031440
:103FF0008461FEF7B4FB08B1FCF79CFC4FF48050E1
:10400000009069460948FEF7A5FC08B1FCF792FC50
:10401000049404A905480694FEF754FB002801D037
:10402000FCF788FC08B010BD0008004040010020EB
:10403000184810B5164901604FF41651416000212F
:1040400081600C22C160C0E904128161C16101621A
:1040500041628162FFF726FA08B1FCF76BFC002190
:104060000C48FFF784F808B1FCF764FC002109480C
:10407000FFF757F808B1FCF75DFC0648FFF730F88A
:10408000002803D0BDE81040FCF754BC10BD000070
:10409000003801408C010020184810B51649016015
:1040A0004FF416414160002181600C22C160C0E9DB
:1040B00004128161C161016241628162FFF7F2F91C
:1040C00008B1FCF737FC00210C48FFF750F808B1A5
:1040D000FCF730FC00210948FFF723F808B1FCF792
:1040E00029FC0648FEF7FCFF002803D0BDE810407D
:1040F000FCF720BC10BD0000004400401C02002062
:10410000FEE7FEF725F8FEE7704700001049C86893
:1041100000F00302C868C0F30310401C032A0ED04D
:104120000C4AB2FBF0F0CA68C2F306225043C968D9
:10413000C1F34161491C4900B0FBF1F07047064AE8
:10414000B2FBF0F0CA68C2F306225043EFE700006A
:10415000001002400024F40000366E0130B5012149
:104160000020FFF7B7FD4FF47A70FCF7D5FB002174
:104170000120FFF7AFFD41F290711020FFF7AAFD7B
:104180004FF41C516020FFF7A5FD01216120FFF7CE
:10419000A1FD02214620FFF79DFD48F210011320EA
:1041A000FFF798FD48F2FE011220FFF793FD4FF450
:1041B000A0610220FFF78EFD41F230010320FFF7DE
:1041C00089FD40F2033421463020FFF783FD21466C
:1041D0003120FFF77FFD21463220FFF77BFDE51EF2
:1041E00029463320FFF776FD03213420FFF772FDC7
:1041F00021463520FFF76EFD14213620FFF76AFDBA
:1042000021463720FFF766FD21463820FFF762FD83
:1042100021463920FFF75EFD29463A20FFF75AFD77
:1042200003213B20FFF756FD21463C20FFF752FDBE
:104230004FF4A0513D20FFF74DFD4FF40071922047
:10424000FFF748FD21469320FFF744FD40F60D019E
:104250009020FFF73FFD41F218010320FFF73AFDE0
:10426000BDE8304040F273110720FFF733BD10B5B1
:1042700043F20801E320FFF72DFD1221E720FFF7AD
:1042800029FD41F23121EF20FFF724FD002101201B
:10429000FFF720FD4FF4E0610220FFF71BFD41F224
:1042A00030010320FFF716FD00210420FFF712FD67
:1042B00040F207210820FFF70DFD00210920FFF73C
:1042C00009FD00210A20FFF705FD00210C20FFF762
:1042D00001FD00210D20FFF7FDFC00210F20FFF75D
:1042E000F9FC00211020FFF7F5FC07211120FFF752
:1042F000F1FC00211220FFF7EDFC00211320FFF755
:10430000E9FCC820FDF7DAF941F290611020FFF7CF
:10431000E1FC40F227211120FFF7DCFC3220FDF701
:10432000CDF91D211220FFF7D5FC3220FDF7C6F98B
:104330004FF400611320FFF7CDFC14212920FFF773
:10434000C9FC0B212B20FFF7C5FC3220FDF7B6F985
:1043500000212020FFF7BEFC00212120FFF7BAFC3E
:1043600007213020FFF7B6FC40F207713120FFF73C
:10437000B1FC06213220FFF7ADFC40F2047135207C
:10438000FFF7A8FC41F604713620FFF7A3FC0421D7
:104390003720FFF79FFC00213820FFF79BFC40F2FD
:1043A00006713920FFF796FC40F201713C20FFF7BF
:1043B00091FC0F213D20FFF78DFC00215020FFF7DD
:1043C00089FCEF215120FFF785FC00215220FFF7E7
:1043D00081FC40F23F115320FFF77CFC4FF41C514D
:1043E0006020FFF777FC01216120FFF773FC0021BB
:1043F0006A20FFF76FFC00218020FFF76BFC002193
:104400008120FFF767FC00218220FFF763FC002179
:104410008320FFF75FFC00218420FFF75BFC002175
:104420008520FFF757FC10219020FFF753FC002157
:104430009220FFF74FFC03219320FFF74BFC4FF432
:1044400088719520FFF746FC00219720FFF742FC7A
:1044500000219820FFF73EFC41F218010320FFF7EE
:1044600039FCBDE8104040F273110720FFF732BC61
:104470007047FDF76BBA10B5A4B038216846FBF75A
:1044800001FF14211FA8FBF7FDFE44210EA8FBF736
:10449000F9FE4FF40070FDF707FB012000900004C7
:1044A000019002200324CDE907040C21CDE9090184
:1044B0000B900C900D906846FDF758FE08B172B64F
:1044C000FEE70F20CDE91F0400242194229402214D
:1044D0001FA82394FDF7CCFC08B172B6FEE748F2A2
:1044E0000300CDE90E044FF000501D9010940EA86B
:1044F000FDF750FB08B172B6FEE7FDF7BBFD24B037
:1045000010BD00000248016841F47001016070476D
:1045100088ED00E00148FEF769BC0000F4000020CF
:104520000148FEF763BC0000400100202DE9F001C6
:104530000268234C234BDFF89080DFF890C0A04244
:1045400008D0B0F1804F05D0984203D0404501D04B
:10455000604503D122F070024D682A431C4D1D4E68
:104560001D4FA0420ED0B0F1804F0BD0984209D021
:10457000404507D0604505D0A84203D0B04201D0E5
:10458000B84203D122F44072CB681A434B6922F03F
:1045900080021A4302608A68C2620A688262A0428C
:1045A00007D0604505D0A84203D0B04201D0B84240
:1045B00001D10969016301214161BDE8F001704742
:1045C000002C01400004004000080040003401407D
:1045D00000400140004401400048014001F01F013B
:1045E00001238B40D0F820C02CEA03030362036A46
:1045F00002FA01F1194301627047D0F808C02CF4A7
:104600007F4C42EA0322114341EA0C01816070476A
:10461000826822F0700222F44012114341F0070137
:104620008160704710B50268936823F0700323F42B
:104630004013D1F804C04CEA030323F0070323F42A
:104640008033D1F800C04CEA030393604A68602AC3
:104650003ED006DC302A40DD402A17D0502A3CD11B
:1046600030E0DFF87CC0A2EB0C03624535DA702A3B
:1046700005D0B2F1101F30D003F110002DE00B690E
:104680008A68C9680068FFF7B8FF26E00A68052A4B
:1046900016D0B2F1011F13D00268136AD2F820C0FD
:1046A0002CF0010CC2F820C00268D2F818C02CF01F
:1046B000F00C09694CEA01119161006803620CE099
:1046C000012010BD0A698968006800F00BF804E059
:1046D0000A698968006800F055F8002010BD0000E4
:1046E00030001000036AD0F820C02CF0010CC0F894
:1046F00020C0D0F818C02CF0F00C4CEA021223F0C5
:104700000A03194382610162704730B4D0F820C0B7
:104710002CF0010CC0F820C0D0F818C0046AA0F139
:104720008045B5F5963528D0B0F1804F25D0A0F161
:104730008045B5F5806520D0A0F18045B5F50065D0
:104740001BD0A0F18045B5F59A3516D0A0F1804573
:10475000B5F5A03511D04CF0010222F0F0024FF077
:10476000F00C0CEA03131A4324F00A0301F00A01C7
:1047700019438261016230BC70472CF0030C4CEA93
:104780000202EAE7036A23F010030362D0F818C0BC
:10479000036A2CF4704C4CEA023223F0A00343EA83
:1047A000011182610162704710B4D0F820C02CF072
:1047B000100CC0F820C08469D0F820C024F44074E4
:1047C00044EA022222F470424FF4704404EA0333B4
:1047D0001A432CF0A0034FF0A00C0CEA011119436E
:1047E0008261016210BC704710B4D0F820C02CF474
:1047F000807CC0F820C0C469D0F820C024F0030435
:10480000224322F0F002F02404EA03131A432CF4AA
:1048100020634FF4206C0CEA01211943C26101624C
:1048200010BC704710B4D0F820C02CF4805CC0F8E5
:1048300020C0C469D0F820C024F4407444EA0222A5
:1048400022F470424FF4704404EA03331A432CF408
:1048500020434FF4204C0CEA01311943C26101623C
:1048600010BC704710B4416E00291CD002689168DA
:10487000C1F342619268520F0E4B13F802C04FEA27
:10488000CC0403F1080C1CF80220B4FBF2F2A0F8EF
:104890006A205A5C1CF80110D200B2FBF1F1A0F8BA
:1048A000681010BC70470121A0F86A10A0F86810C9
:1048B00010BC7047106F000890F8281011F0010F1D
:1048C00006D001684A68C36A22F400321A434A607B
:1048D00090F8281011F0020F06D001684A68036BA7
:1048E00022F480321A434A6090F8281011F0040F25
:1048F00006D001684A68436B22F480221A434A605A
:1049000090F8281011F0080F06D001684A68836BF0
:1049100022F400421A434A6090F8281011F0100F58
:1049200006D001688A68C36B22F480521A438A60F9
:1049300090F8281011F0200F06D001688A68036CE7
:1049400022F400521A438A6090F8281011F0400FA8
:1049500011D001684A68436C22F480121A434A60FD
:10496000416CB1F5801F06D101684A68836C22F45E
:10497000C0021A434A6090F8281011F0800F06D048
:1049800001684A68C06C22F40022104348607047F6
:10499000F8B504460025C4F88C50FCF7D1FF074653
:1049A000206800686FF07E4610F0080F0AD03B4682
:1049B00000224FF400112046009600F003FC08B1DD
:1049C0000320F8BD2068006810F0040F0AD03B46B1
:1049D00000224FF480012046009600F0F3FB08B15E
:1049E0000320F8BD2020C4F88400C4F88800E566E0
:1049F00084F880500020F8BD10B5806A0021A0F82E
:104A00005E10A0F85610FEF7DAFB10BD01680A68C8
:104A100022F490720A6001688A6822F0010222F092
:104A200080528A60C16E012904D101680A6822F0AF
:104A300010020A602021C0F888100021C1660167B9
:104A4000704710B501680A6822F040020A60202110
:104A5000C0F8841000214167FEF74EFE10BD70B50E
:104A60000446B4F86010D4F888202068222A04D0C4
:104A7000816941F00801816170BD406AA26D084002
:104A80001080A06D801CA065B4F85E00401EA4F8E4
:104A90005E00B4F85E000028EED12068016821F4C1
:104AA000907101602068816821F0010181602020FF
:104AB000C4F8880000252567E06E012804D0204650
:104AC000FEF7AEFDE56670BD2068016821F01001BB
:104AD0000160B4F85C102046FEF721FBF2E700000D
:104AE0002DE9F05F0446B4F860802068C569D0F80D
:104AF00000A08668D4F88810222905D0816941F089
:104B000008018161BDE8F09FB4F8689000274FF07C
:104B1000010B60E02068406AA16D00EA080008808F
:104B2000A06D801CA065B4F85E00401EA4F85E0075
:104B30002068C56915F0070F33D015F0010F0AD0B2
:104B40001AF4807F07D0C0F820B0D4F88C0040F071
:104B50000100C4F88C0015F0020F0BD016F0010F05
:104B600008D0216802200862D4F88C0040F00400CC
:104B7000C4F88C0015F0040F0BD016F0010F08D00C
:104B8000216804200862D4F88C0040F00200C4F8C8
:104B90008C00D4F88C0020B12046FEF710FBC4F83E
:104BA0008C70B4F85E00B0B92068016821F480719F
:104BB00001602068816821F0010121F0805181604D
:104BC0002020C4F888002767E06E01281FD0204607
:104BD000FEF726FDE766B9F1000F02D015F0200FB1
:104BE00098D1B4F85E0000288CD0B4F868108142E7
:104BF00088D92068816821F0805181600948206748
:104C00002068016841F020010160BDE8F09F206844
:104C1000016821F010010160B4F85C102046FEF735
:104C20007EFAD7E75F4A000870B50446B4F8601012
:104C3000D4F888202068222A04D0816941F0080134
:104C4000816170BD406A0840A16D0870A06D401C74
:104C5000A065B4F85E00401EA4F85E00B4F85E00E3
:104C60000028EED12068016821F49071016020686D
:104C7000816821F0010181602020C4F888000025AE
:104C80002567E06E012804D02046FEF7C9FCE566E2
:104C900070BD2068016821F010010160B4F85C105B
:104CA0002046FEF73CFAF2E72DE9F05F0446B4F83F
:104CB00060802068C569D0F800A08668D4F88810A4
:104CC000222905D0816941F008018161BDE8F09F8A
:104CD000B4F8689000274FF0010B60E02068406A4C
:104CE000A16D00EA08000870A06D401CA065B4F832
:104CF0005E00401EA4F85E002068C56915F0070F2D
:104D000033D015F0010F0AD01AF4807F07D0C0F815
:104D100020B0D4F88C0040F00100C4F88C0015F0ED
:104D2000020F0BD016F0010F08D021680220086294
:104D3000D4F88C0040F00400C4F88C0015F0040F87
:104D40000BD016F0010F08D0216804200862D4F8B7
:104D50008C0040F00200C4F88C00D4F88C0020B124
:104D60002046FEF72CFAC4F88C70B4F85E00B0B997
:104D70002068016821F4807101602068816821F059
:104D8000010121F0805181602020C4F8880027674C
:104D9000E06E01281FD02046FEF742FCE766B9F11D
:104DA000000F02D015F0200F98D1B4F85E00002853
:104DB0008CD0B4F86810814288D92068816821F0CD
:104DC00080518160094820672068016841F0200116
:104DD0000160BDE8F09F2068016821F010010160CA
:104DE000B4F85C102046FEF79AF9D7E7294C000882
:104DF0002DE9F04104460025AF4B20682269A168E7
:104E0000D4F81CC01143626942EA0C0211430268E3
:104E1000DFF8A8C202EA0C02114301602068416871
:104E2000E26821F4405111434160A0692168994230
:104E300001D0226A10438A6822F4306222F06E4266
:104E4000104388602068C16A626A21F00F01114333
:104E5000C16222689A48A2F18041B1F59C3120D00C
:104E6000A2F18041B1F5884130D0A2F18041B1F585
:104E7000904140D0A2F18041B1F5984150D09A4282
:104E80006BD1D0F8880010F440605ED0B0F5806F30
:104E90005FD0B0F5006F5AD0B0F5406F5BD01021F5
:104EA0005CE0D0F8880010F0030007D0012809D09A
:104EB000022805D0032807D010214FE001214DE042
:104EC00002214BE0042149E0082147E0D0F88800A6
:104ED00010F00C0007D0042809D0082805D00C28B1
:104EE00007D010213AE0002138E0022136E0042109
:104EF00034E0082132E0D0F8880010F0300007D00C
:104F0000102809D0202805D0302807D0102125E00E
:104F1000002123E0022121E004211FE008211DE0FF
:104F2000D0F8880010F0C00007D0402809D08028B1
:104F300005D0C02807D0102110E000210EE002218A
:104F40000CE004210AE0082108E0002106E002212B
:104F500004E0042102E0082100E0102159485A4FE2
:104F600000269A423AD1B9B1022905D0042916D0B7
:104F7000082917D00020012568B3616A37F811208D
:104F8000B0FBF2F1676807EB47038B4202D8B1EB45
:104F9000073F0AD9012585E0FDF77AF8ECE7FDF730
:104FA0009BF8E9E74FF40040E6E700231946FBF7DA
:104FB00031F9090241EA10610202780810187141C2
:104FC0003A460023FBF726F9404AA0F5407191428A
:104FD00002D82168C86065E0012563E0E2694FF608
:104FE000EF78B2F5004F08D0092945D2DFE801F08B
:104FF000383B46443E4444444100092912D2DFE88C
:1050000001F0050813110B1111110E00FDF740F806
:105010000AE0FDF74FF807E0FDF75EF804E04FF413
:10502000004001E000200125D0B3616A37F811107B
:10503000B0FBF1F04100606801EB5001B1FBF0F012
:1050400080B2A0F11001414508D84FF6F07101403F
:10505000C0F3420008432168C86023E0012521E035
:10506000FDF716F80AE0FDF725F807E0FDF734F83C
:1050700004E04FF4004001E00020012580B1616AA6
:1050800037F81110B0FBF1F1606801EB5001B1FB92
:10509000F0F080B2A0F11001414502D82168C8604B
:1050A00000E001250120A4F86A00A4F86800266742
:1050B00066672846BDE8F08100800040F369FFCFB5
:1050C000001002400024F400F86E0008FFFC0F00FE
:1050D00010B48165A0F85C20A0F85E20002303676F
:1050E00081684FF0FF0CB1F5805F17D07F24F9B1D4
:1050F000B1F1805F24D0A0F86030C0F88C3022215C
:10510000C0F888100168D1F808C04CF0010CC1F853
:1051100008C0416EB1F1005F1BD036E0016911B1EA
:10512000A0F860C0E9E740F2FF11A0F86010E4E7E2
:10513000016911B1A0F86040DFE7A0F860C0DCE7CA
:10514000016919B13F21A0F86010D6E7A0F86040CE
:10515000D3E7B0F86810914217D88168B1F5805F45
:1051600001D1016971B11349016780F8803001688C
:105170000A6842F480720A600068816841F08051D8
:10518000816011E00C490167EFE78168B1F5805F4C
:1051900001D1016959B10949016780F8803000687F
:1051A000016841F49071016010BC0020704704490F
:1051B0000167F2E7A94C0008E14A0008294C000801
:1051C0005F4A00082DE9F0470446089D0E46174641
:1051D00098462068C06936EA000032D00020B84204
:1051E0004CD14FF0000A4FF02009B5F1FF3F3DD000
:1051F000FCF7A6FBA0EB0800A84224D81DB320684A
:10520000016811F0040F31D0C06910F4006F2DD087
:1052100021684FF4006008622068016821F4D071B1
:1052200001602068816821F001018160C4F88490E8
:10523000C4F88890C4F88C9084F880A00320BDE85E
:10524000F0870120CBE72068016821F4D07101606C
:105250002068816821F001018160C4F88490C4F85D
:10526000889084F880A00320BDE8F0872068C0699A
:1052700036EA000005D00020B842B6D00020BDE8D4
:10528000F0870120F8E700000148FDF799BF000012
:105290008C0100200148FDF793BF00001C02002094
:1052A000FEE700000FB4084B10B504A902AA03984A
:1052B00000F0DEF8044602A9002000F05CFC204665
:1052C00010BC5DF814FB0000775B000802E008C822
:1052D000121F08C1002AFAD170477047002001E070
:1052E00001C1121F002AFBD1704700002DE9FF5FAA
:1052F00082B00021DDE90430020DDDF840B0034347
:1053000018D044F61050A2F2FF32424315141198FF
:1053100001281FD0A5EB0B00401C5FEA000A4FF0EC
:1053200000064E4FDFF83891B046504615D5CAF109
:10533000000413E0119801244AA3012801D16FEA67
:105340000B010298119AC0E90031C0E9024206B08F
:10535000BDE8F09FCBF10000DFE704460021404AA2
:10536000491842EB0450CDE9001012E0E00707D0E5
:1053700032463B4640464946FAF796FF8046894604
:1053800032463B4610461946FAF78EFF06460F4650
:105390006410002CEAD1DDE90401DDE90023BAF153
:1053A000000F06DAFAF780FF42464B46FAF77CFF19
:1053B00005E0FBF797F942464B46FBF793F90446A5
:1053C0000E460022284BFBF715FA03D84FF0FF30AA
:1053D000014607E00022254B20463146FBF7DBF86B
:1053E000FBF7EFF9102409E0002C0ADB0A22002366
:1053F000FAF710FF039B30321A55641E50EA01027F
:10540000F2D1641C039AC4F111031444119A012AC5
:1054100003D0012208430DD10AE0084304D0002044
:105420004FF0110B119072E7A3EB0B056D1E0DE011
:105430005B4504DD4FF0000205F1010504E003DAED
:105440004FF00002A5F10105002AECD00298119955
:10545000C0E90231C0E9004579E7000000001440CE
:105460000000F03F300000000000F0430000E03F8B
:105470002DE9FF4F95B09A46884606460025EEE195
:10548000252877D100242746F94A0121039400E01A
:10549000044316F8013F203B01FA03F01042F7D114
:1054A00030782A2811D06FF02F033078A0F1300225
:1054B000092A16D8039A44F0020402EB820203EB95
:1054C00042021044761C0390EFE758F8042B039235
:1054D000002A03DA504244F40054039044F00204DA
:1054E000761C30782E2816D116F8010F44F00404EB
:1054F0002A280DD06FF02F023078A0F13003092B4D
:1055000009D807EB870302EB4303C718761CF3E7C0
:1055100058F8047B761C30786C280FD006DC4C28B9
:1055200017D068280DD06A2814D104E0742810D050
:105530007A280FD10DE044F400140AE044F48014FA
:1055400001E044F440147278824202D104F58014E0
:10555000761C761C307866280BD013DC582877D060
:1055600009DC002875D04528F6D04628F4D0472815
:105570001AD193E118E0632835D0642879D06528E2
:1055800012D18BE1702873D008DC6728F1D069282C
:105590006FD06E280DD06F2806D1ACE073282CD0C8
:1055A000752874D0782853D05246179990476D1CAF
:1055B00054E1C4F30250022809D003280DD0D8F8D2
:1055C000001004280DD00D6008F1040846E1D8F859
:1055D0000010EA17C1E90052F6E7D8F800100D8074
:1055E000F2E70D70F0E718F8041B8DF800100020AA
:1055F0008DF80100EB46012003E058F804BB4FF0A2
:10560000FF3061074FF0000102D40DE009F1010104
:105610008946B9420FDA8145F8DB1BF809100029E9
:10562000F4D108E009F1010189468142FADB1BF857
:1056300009100029F6D103985346A0EB090721462B
:105640003846179A00F080FA284400EB090507E075
:1056500044E008E10DE01BF8010B52461799904712
:10566000B9F10109F7D2534621463846179AF2E0BC
:1056700039E00A21C4F302524FF0000B0091022AD4
:1056800006D058F8040BC117032A09D00AE023E01A
:1056900008F1070020F00702F2E80201904605E059
:1056A00000B2C117042A01D140B2C117002906DA9D
:1056B0000A460021404261EB02012D2202E0220550
:1056C00004D52B228DF80420012203E0E20701D04B
:1056D0002022F7E7914657E00A2100E010214FF021
:1056E000000B00910BE010214FF0000B44F004047C
:1056F0000827009103E008204FF0000B0090C4F34E
:105700000252022A05D058F8040B0021032A08D0BF
:1057100008E008F1070020F00702F2E802019046D5
:1057200003E080B2042A00D1C0B24FF00009220782
:105730002AD53278702A07D0DDF800C08CF0100C22
:105740005CEA0B0C05D00EE040228DF8042001220B
:1057500008E050EA010306D030238DF804308DF8BC
:10576000052002229146009B83F0080353EA0B03B5
:105770000AD150EA010201D1620705D530228DF825
:1057800004204FF001097F1E3278582A04D039A234
:105790000C920CAA02920BE03BA2F9E75B46009A3E
:1057A000FAF738FD0C9B9B5C029A521E0292137012
:1057B00050EA0102F2D1029804A9081A00F1200B64
:1057C000600702D524F4803400E001275F4502DD44
:1057D000A7EB0B0000E0002000EB0B01009003980A
:1057E0004944401A0390E00306D453462146179AD1
:1057F000039800F0A9F90544002706E001A85246E5
:10580000C05D179990476D1C7F1C4F45F6DBE00388
:105810000CD553462146179A039800F095F9054494
:1058200004E030205246179990476D1C0099481E9D
:1058300000900029F5DC08E00298029952460078B1
:10584000491C0291179990476D1CBBF10001ABF107
:10585000010BF1DC5BE100F065F90544761C307862
:1058600000287FF40DAE19B02846BDE8F08F000087
:105870000928010030313233343536373839616226
:1058800063646566000000003031323334353637EA
:10589000383941424344454600000000600700D4C7
:1058A000062708F1070020F00700F0E802238046F1
:1058B00003F0004C5FEA0C0001D097A009E020053E
:1058C00001D596A005E0E00701D095A001E0AFF278
:1058D0004C001390307823F0004365280CD006DC90
:1058E000452809D046281DD047287FD13BE06628AF
:1058F00018D067287AD136E00021112F01DB112062
:1059000000E0781CCDE9000104A90CA8FFF7EEFC2B
:10591000DDE90D010C9A4FF0000B07F1010910921F
:1059200000914EE04FF000400097CDE9011004A92E
:105930000CA8FFF7DBFCDDE90D020C9B0F994FF083
:10594000000B91461093009211B9791C00EB0109EC
:10595000B7EB090003D4C0F1FF3B07F10109A9EB44
:105960000700019042E0012F00DA01270021112FEA
:1059700001DD112000E03846CDE9000104A90CA8A2
:10598000FFF7B4FCDDE90D010C9A00914FF0000B1C
:10599000B946109221070FD4009A4A4503DA91467E
:1059A00001E0A9F10109B9F1010F05DD109AA9F192
:1059B0000101515C3029F4D0B84202DA10F1040F31
:1059C00003DA0121CDE9011010E0002803DC834453
:1059D000A9EB000102E0411C494500DD8946A0EB2E
:1059E0000B00401C01904FF000400290200705D4AE
:1059F0000198484502DB4FF0FF30019000208DF800
:105A00004B0002980DF14B07B0F1004F25D002205A
:105A10000C902B200D90029800280CDA4042029046
:105A20002D200D9007E00A210298FAF7EBFC3031A7
:105A3000029007F8011D0C99481E0C900029F2DC19
:105A400002980028EFD1791E0D980870307800F088
:105A5000200040F0450007F8020D11A8C01BC01D32
:105A600002901398007800B1012000EB0901019821
:105A700001EBE071029801440398401A401E039024
:105A8000E00306D453462146179A039800F05CF8C9
:105A900005441398007818B15246179990476D1C29
:105AA000E00323D553462146179A039800F04CF89B
:105AB00005441BE0BBF1000F07DB0098584504DDEF
:105AC0001098179910F80B0001E0179930205246F2
:105AD000904701980BF1010B401E05F10105019063
